:1080000010D800208D8900007FC40000798900000D
:108010007989000079890000798900007989000058
:10802000000000000000000000000000518B000074
:108030007989000000000000098B000079890000A8
:10804000B58C0000B58C0000B58C0000B58C00002C
:10805000B58C0000B58C0000B58C0000B58C00001C
:10806000B58C0000B58C0000B58C0000B58C00000C
:10807000B58C0000B58C0000B58C0000B58C0000FC
:10808000B58C0000B58C0000B58C0000B58C0000EC
:10809000B58C0000B58C0000B58C0000B58C0000DC
:1080A000B58C0000B58C0000B58C0000B58C0000CC
:1080B000B58C0000B58C0000B58C0000B58C0000BC
:1080C000B58C0000B58C0000B58C0000B58C0000AC
:1080D000B58C0000B58C0000B58C0000B58C00009C
:1080E000B58C0000B58C0000B58C0000B58C00008C
:1080F000B58C0000B58C0000B58C0000B58C00007C
:10810000B58C0000B58C0000B58C0000B58C00006B
:10811000B58C0000B58C0000B58C0000B58C00005B
:10812000B58C0000B58C0000B58C0000B58C00004B
:10813000B58C0000B58C0000B58C0000B58C00003B
:04814000B58C0000FA
:10814400034613F8012B002AFBD1181A0138704793
:108154002DE9F3411C4DAC68E36B13BBE36A3BBBF5
:10816400DFF86480194C1A4EAB681B69EBB101222D
:1081740040460DF107019847012816D19DF80720C4
:108184000A2A01D00D2A18D12368002B15DD0027F7
:10819400F754002200230E490E4802F0C9FE27605E
:1081A400E2E7284698470028D8D102B0BDE8F0811C
:1081B400054898470028D3D1F7E723681E2B9EBFB4
:1081C400591C2160F254CFE7A8CF0000F0C800206A
:1081D40064CA0020E0C600202DE9F3411C4DAC68C0
:1081E400E36B13BBE36A3BBBDFF86480194C1A4EA4
:1081F400AB681B69EBB1012240460DF107019847BA
:10820400012816D19DF807200A2A01D00D2A18D179
:108214002368002B15DD0027F754002200230E49A4
:108224000E4802F085FE2760E2E7284698470028BA
:10823400D8D102B0BDE8F081054898470028D3D1D1
:10824400F7E723681E2B9EBF591C2160F254CFE729
:1082540094CF0000F0C8002064CA002008C70020A2
:10826400F8B50646FFF76CFF00240546054FAC42FF
:1082740000DBF8BD315DBB6802485B689847013498
:10828400F5E700BFA8CF0000F8B50646FFF758FF92
:1082940000240546054FAC4200DBF8BD315DBB68E8
:1082A40002485B6898470134F5E700BF94CF0000AB
:1082B40030B589B0304C204604F06CFC28B92F4806
:1082C40003F0ECFF002009B030BDA3688BB11B6C38
:1082D4007BB1002220462A499847204604F05AFCE4
:1082E4000028ECD0274D284604F054FC18B9264841
:1082F400E6E72648E4E7AB68002B3BD01B6C002B79
:1083040038D00022284622499847204604F042FCEF
:108314000028D4D0204603F0DAFE284603F0D7FE26
:108324001C48FFF79DFF1C48FFF7AEFF1B4C1C4D7C
:10833400002200236946204602F04AFE40B928463E
:10834400FFF78EFF6846FFF78BFF1648FFF788FF9D
:10835400002200236946144802F03AFE0028E7D1BF
:108364001248FFF791FF6846FFF78EFF0D48FFF7AD
:108374008BFFDDE70E48A3E7A8CF000064D300001D
:108384005581000094CF0000B0D300007CD30000DE
:10839400DD810000FCD300003BD4000008C70020AE
:1083A4007AD4000077D40000E0C600208CD400000A
:1083B400C8D30000014B1B68184700BF80C50020CC
:1083C400014B1860704700BF80C5002030B585B0F0
:1083D40004460D4610220021684604F01CFD0223C9
:1083E4008DF80230044B2A4621466846019303F077
:1083F40013FC05B030BD00BFB983000080B505464D
:108404000E461746984603F01BFA034604F06EFD29
:108414000446DFF81890424649F8003039463046A1
:10842400A84754F8090000F017FB00BF080000003B
:108434002DE9F047058B04462807904611D40229FC
:1084440005F0070540F0CC80204603F034FF78B1F6
:108454000138218B042811D8DFE800F0C2106D85A3
:10846400950001290CBF45F0100545F02005258332
:1084740088F31188BFF36F8FBDE8F08701F0070A16
:10848400AA4500F0A5800027B9463E46A368002B04
:1084940000F0BC8041F00801218388F31188BFF308
:1084A4006F8FA168002900F0BA800D68002900F0E0
:1084B400B680334652462046D1F80480C047002D8A
:1084C40076D02B6829461D46F0E701F007035A1FB2
:1084D400012A1BD8002221F00701062B276889B244
:1084E400C4E9002209D13B4603E0628B0132628376
:1084F4001B68002BF9D141F002012046218303F0CF
:10850400DAFE00287AD041F0200176E0042B0AD16B
:1085140021F0070189B22046218303F0CCFE10B17B
:1085240041F020012183218B01F0070AAA454FD095
:108534000027B946AAE7236921F0070141F00601A3
:10854400062DD3F8009021832DD1B9F1000F3FD02F
:1085540041F00801218388F31188BFF36F8F20460F
:108564003949C84729E021F00701236941F0040192
:1085740089B2042DD3F804902183E6D000274FF06C
:10858400040A3E4682E721F00701236941F0050110
:1085940089B2052DD3F808902183D6D000274FF057
:1085A400050A3E4672E700274FF0060A3E466DE78D
:1085B4002B4687E7B9F1000FD1D1EFF311882023BF
:1085C40083F31288BFF36F8F238B23F00803238375
:1085D400258BEA062ED525F01003238305F0070525
:1085E4006669218B002EBFF670AF00232768C4E9AB
:1085F400003321F0070141F001012183218B4FF069
:10860400000901F0070AAA457FF440AF002F9CD06F
:1086140041F00801218388F31188BFF36F8F002F85
:10862400C8D03D68394633465246204603F06FFEB3
:108634002F46F4E7AB067FF51BAF25F02003238319
:1086440005F0070500E700BF3FC30000014B0360CE
:1086540000207047E8D1000008B5044803F01EFE6E
:10866400BDE80840024803F019BE00BF9ED40000D4
:10867400D3D4000030BFFFF7FDBF00BF2DE9F041A8
:1086840005460B4EDFF82C80324606EB0807CC1B60
:108694002046094904F0B2FBA01942460021083CD7
:1086A40004F0B9FB2C6707F10800BDE8F08100BFB6
:1086B4000000000004000000C4D10000074A9368D1
:1086C40093F90E10002907DB526993421FBF044A35
:1086D400536843F080535360704700BF34CA00208E
:1086E40000ED00E0154B9A6A12F0007F9A6A14BFFD
:1086F4001E201D2012F0807F9A6A18BF1F2012F4DA
:10870400801F9A6A18BF022012F4002F9A6A18BFB9
:10871400212012F4802F9A6A18BF222012F4003FFD
:108724009A6A18BF232012F4803F9A6A18BF242043
:108734006FEA02426FEA12429A62704700ED00E06B
:1087440010B5194B0246986A9C6A10F4805F14BFF6
:108754001720162014F4006F9C6A18BF1820A40573
:1087640009D5986B986A000404D51AB19A6A22F460
:1087740000429A6219200C4B9A6A12F4806F9A6A2A
:1087840018BF1A20D2050CD49B6A13F4005F18BFDB
:108794001C20054A936A43F47F43936200230B70C1
:1087A40010BD1B20F5E700BF00ED00E010B51C4B29
:1087B4000246986A9C6A10F0100F14BF1120102012
:1087C40014F0080F9C6A18BF1220A40709D5586B2F
:1087D400986A000604D51AB19A6A22F080029A6255
:1087E40013200F4B9A6A12F0010F9A6A18BF1420D3
:1087F40012F0200F9A6A18BF1520D40658BF9B6A3E
:10880400074B9A6A920642BF5A6A22F400525A628D
:108814009A6A42F0FF029A6200230B7010BD00BFF7
:1088240000ED00E0F0B54A4B04465B6800258BB0D0
:10883400C3F3080385F31188BFF36F8F02F07F4001
:10884400B0F17F4F16D1D60714D4550603D41007C0
:1088540004D4012504E012F0040200D00C460025E3
:108864000022033B8DF80720032B05D8DFE803F033
:108874002462665F2C46F3E700239DF80720CAB9FB
:1088840002AE04F12007324620686168083403C24E
:10889400BC421646F7D1099A002D53D0C2F3080101
:1088A40021B96FEA52226FEA42220992184602A9BC
:1088B40003F0D9FD0BB0F0BD254BDA6A9107DBD488
:1088C400DA6A002AD8DBDA6A5200D5D55A69A16976
:1088D40042F480725A61BFF34F8FBFF36F8F5A69AE
:1088E40031F8021C22F480725A61BFF34F8FBFF338
:1088F4006F8F4DF60272914201D12368BDE79A6AE7
:10890400D2B232B101200DF10701FFF74FFF034648
:10891400B3E79A6A12F47F4F05D001200DF10701E5
:10892400FFF70EFFF3E79B6AB3F5803FA4D3FFF78D
:10893400D9FEECE700200DF10701E6E700200DF178
:108944000701EDE722F4FF7222F00102ADE700BF58
:1089540000ED00E0064B5A6942F010025A615A6970
:1089640042F480625A615A6922F008025A617047DF
:1089740000ED00E0EFF30880EFF3098101B57246E2
:10898400FFF750FF01BD00BF002080F31488BFF340
:108994006F8F002080F30A8880F30B8804F046F878
:1089A40000200E490860BFF34F8F0D4880F30888FC
:1089B40000F02CF8202080F311880A484FF400615D
:1089C400401880F30988EFF314800221084380F3F0
:1089D4001488BFF36F8F00F0FBF8000094ED00E003
:1089E40010D80020D0CA0020002318460649D1F828
:1089F4009020C2F30722934200DB7047C1F89830FD
:108A0400C1F8A0000133F6E700ED00E010B572B63E
:108A1400002484F31388FFF7E7FF23464FF0FF3069
:108A24000C4A03F120010133102B42F82100F8D144
:108A340000234FF0FF30074A03F160010133102B8C
:108A440042F82100F8D162B6BFF34F8FBFF36F8FA6
:108A540010BD00BF00E100E0084B9B6883420BD1CE
:108A6400EFF3058343B1064B5A6842F080525A60D3
:108A74005A6A22F400425A6204F085B934CA0020CA
:108A840000ED00E06FF00A01084A9368996708490D
:108A940058674B6843F080534B60002383F311887D
:108AA400BFF36F8F9368986F704700BF34CA00207C
:108AB40000ED00E0104A936883F87D00EFF3118322
:108AC400202383F31288BFF36F8F4FF00061536943
:108AD40020F0FF009360094A5160196F084A116041
:108AE400002193F87D2010435A6F596782F311884F
:108AF400BFF36F8F704700BF34CA002000ED00E061
:108B0400F4C8002010498A6882F87DE04FF03000F4
:108B14001044EFF3098C80E8F01F74467046FFF7A9
:108B2400C9FFA64608498A68864602F1300090E8E3
:108B3400F01F8CF3098802F1000004B503F0AAFCCD
:108B4400BDE804407047000034CA00201EF0040F42
:108B54000CBFEFF30880EFF30980816911F8021C60
:108B64000229FFD001B503F084FC01BD40B2002806
:108B740007DB01234109034A00F01F00834042F848
:108B84002130704700E100E0054B420953F82220F0
:108B9400012300F01F0003FA00F01040704700BFEB
:108BA40000E100E040B2002801F10101ACBF00F196
:108BB4006040064B4FEA4111C9B2ABBF00F56140BA
:108BC40000F00F0080F800131954704714ED00E012
:108BD4000B4A08B50B4B22F07F029A60BFF34F8F0C
:108BE400BFF36F8FD3F8882022F47002C3F8882073
:108BF40002F0DCF802F0B0FE00F04EF802F016F9D4
:108C04000080000000ED00E042F8203C009B0C498D
:108C140042F81C3C019B21F0010142F8183C029BE4
:108C240042F8081C42F8143C4FF0807342F8043CAC
:108C3400002343674FF43C43203A0265C3677047FF
:108C44000184000000B50D4B15469860026F0C4B73
:108C54000E461A60036E83F30B882C4686F309884C
:108C64004FF00000074B984720464FF000014FF0AB
:108C740000024FF00003044C204700BF34CA002018
:108C8400F4C80020A1C40000018400001022014B9C
:108C94001A61704700ED00E0002320210348C21848
:108CA4000133412B82F80013F9D1704700E100E051
:108CB40008B5EFF30583064A103B02EBC30152F8F3
:108CC400330049688847BDE80840FFF7F7BC00BF98
:108CD400BCCF00001FB5094C094A234601210948AD
:108CE40000F0FAF800230393074B0121E41A01A8CA
:108CF4000193029400F0FAF804B010BD00000420BF
:108D040080C50020E8D1000030C7002010B50C7ADF
:108D14000B6804F01F0223F01F031A43CB68640995
:108D240023F01F03054943EA440343F00103C1F858
:108D34009800C1F89C20C1F8A03010BD00ED00E0FF
:108D440010B5074BD3F89030C3F30723013B984287
:108D540002D8FFF7DBFF10BD6FF01500FBE700BF83
:108D640000ED00E02DE9F04F0F46144606464FF0A3
:108D740000084D4D85B0B84580F29280D6F8049035
:108D8400B9F1000F36D0B9F11F0F40F2878019F006
:108D94001F0F40F08380D6F800A01AF01F0F7DD17A
:108DA400504603F09EFB834609EB0A00013803F0AA
:108DB40098FB834572D11BF1160F6FD05C456DDDB6
:108DC400C5F898B0D5F89C10C5F898B0D5F8A0307F
:108DD40021F01F0143F01F0AD6E900321A449942D8
:108DE40002F1FF391ED1CA4508D131465FFA8BF032
:108DF40003F080FB08F101080C36BCE73146C5F8E6
:108E040098B0D5F89C3022F01F0203F01F031343DF
:108E1400C5F89C30E0B203F06DFB10F1160F3DD0A5
:108E2400441CE7E7C5F898B0D5F8A020013B23F02F
:108E34001F0302F01F021343CA453146E0B2C5F8CE
:108E4400A030E8D003F056FB10F1160F26D0C5F879
:108E540098B0D5F89C209DF808300AF1FF3A62F3E7
:108E640004038DF80830D5F8A0309DF808205B087D
:108E740063F347128DF80820D6E9003213440093B7
:108E840023F01F035344A3EB0903013023F01F0312
:108E94006946C0B20393FFF753FFBEE76FF01504B2
:108EA400204605B0BDE8F08F00ED00E00522044B3C
:108EB400C3F89420BFF34F8FBFF36F8F704700BF89
:108EC40000ED00E0BFF35F8F0022024BC3F8942053
:108ED400704700BF00ED00E010B5034C2278FFF7A7
:108EE40041FF207010BD00BF84CA00202DE9F74F58
:108EF400294D8A4606464FF00008AB46274FD04519
:108F04001BDAD6F80490B9F1000F3FD03168084657
:108F1400019103F0E6FA0199044609EB01000138D6
:108F240003F0DFFA84424FF014021D4B08D002FB19
:108F340008F36FF015024BF8032003B0BDE8F08F7F
:108F440014F1160F2C60F8D01978A142F5DD02FB5C
:108F540008B0C7F89840C7F89840D7F89C4000F18B
:108F64000801007B64F304000871D7F8A0000C79B1
:108F7400400860F347140C71D7F89C1021F01F01CE
:108F84006960D7F8A01021F01F01296108F10108D8
:108F940014350C36B3E700BFF8C8002000ED00E03C
:108FA40084CA0020F0B54149414CD1F8903025687D
:108FB400C3F307239D4287B075D80020FFF782FFD3
:108FC4003C4BC1F8C030854216D13B4C01A82570FA
:108FD400FFF73CFB00250646384FAE4213D1002074
:108FE40023783249D1F89020C2F30722934254DB0C
:108FF400FFF75CFF00202FE0616801EB0011FFF731
:1090040085FE0130DFE70199280101EB0513DA68D9
:109014003A40B2F5001F21D0B2F5800F2BD0B2F543
:10902400801F38D15A689B680958013B22F01F0001
:1090340003440120844623F01F0340EA4C10CDE989
:1090440002218DF8100002A920780593FFF778FE1D
:1090540000281DDA6FF0150007B0F0BD5A689B6850
:109064000958013B22F01F0003444FF0020C012079
:1090740023F01F03E1E75A689B680958013B22F07B
:109084001F0003444FF0000C062023F01F03D4E715
:1090940023780133237001359FE7C1F89830C1F874
:1090A400A00001339EE74FF0FF30D5E700ED00E06C
:1090B400F4D10000AAFF440084CA00200000F0FF9D
:1090C40008B5024B1B689847002008BD0CC9002056
:1090D400034B044A1860937843F00203937070477B
:1090E4000CC9002084C5002008B50649064821F0B3
:1090F4000701C1F1005202F5802203F075F8002047
:1091040008BD00BF97DC002010C900200122024BDB
:109114000020C3F8402570470090034020B1034B62
:10912400800143F001031847704700BFE0D10000FD
:1091340013B56C46104B93E8030084E803000F4812
:1091440003F028FD20B14FF42021204603F0F0F96C
:109154000B4B93E8030084E80300084803F01AFD6E
:1091640038B120464FF4C02103F0E2F9002002B0E8
:1091740010BD6FF01200FAE7D0D1000080CF0000DC
:10918400D8D10000084B70B5C31A0D4607499B108F
:10919400044659434022064803F0E8F92B460146A9
:1091A4002046BDE87040184730C90020B76DDBB6D3
:1091B4006CCF0000402373B50B4C0093041B0B468B
:1091C4000D460A49A41061430646094A094803F0BA
:1091D400F9F9011E05DA30462B4602B0BDE87040AD
:1091E400184702B070BD00BF30C90020B76DDBB6B0
:1091F40033C600006CCF000010B5EFF311842023B8
:1092040083F31288BFF36F8F074A136823F00201B8
:10921400DB07116002D4012003F015FC84F31188EC
:10922400BFF36F8F10BD00BF80C9002070B500224E
:10923400012104460520FFF7B5FC0F4801F024F88E
:109244000E4B984215D101F02FF826690C4930468F
:1092540003F080F800280BDB0125356424690849F4
:1092640004F11C0003F076F8002801DB0020E5641B
:1092740070BD6FF00400FBE7859300000000AD0BA8
:109284001CD200001FB500220123CDE902236B4646
:10929400084ACDF800D0CDF804D003F0C1F9002875
:1092A40005DB4FF480420023684601F0C1FF05B09E
:1092B4005DF804FB51C600000C22104B014602FB72
:1092C4000033002030B4D3E90E529863EFF31180D9
:1092D400202484F31288BFF36F8F1C6C04F0C00445
:1092E40044F002041C6480F31188BFF36F8F1DB136
:1092F4002B4630BC0248184730BC704730C90020A8
:109304006CCF000010B4EFF31182202383F3128892
:10931400BFF36F8F1748016841F002040460C80767
:1093240007D482F31188BFF36F8F012010BC00F0C3
:10933400CFBF1149D1F80C04D1F80C14C907F0D5EA
:10934400EFF3118083F31288BFF36F8F0B490B6C1B
:1093540003F0C00343F002030B6480F31188BFF3EE
:109364006F8F82F31188BFF36F8F002010BCFFF75B
:10937400A3BF00BF80C900200050004030C90020B6
:1093840010B1012804D07047034B1B6C5B0701D15B
:10939400FFF792BF704700BF30C900202DE9F041AC
:1093A400012207463449D1E8EF3FC1E8E02F002805
:1093B400F9D133B9314932484B60CB608A6002F04D
:1093C400DCFF7B1E012B28D8012F06D12D4BD3F8AF
:1093D4001C3403F00303022B1FD003F029FC0546C1
:1093E400E8B9294B1B78D3B102220646254BC3F8B2
:1093F4000823244CDFF89480D4F81824D4F81834C3
:10940400D20315D503F00303022B01D0012F0FD192
:109414006DB386F31188BFF36F8FBDE8F081EFF36E
:109424001186202383F31288BFF36F8F0125E0E7B1
:10943400C5B1304603F046F8D4F81835DBB2012B39
:10944400DAD1D4F80421002AD6D00022C4F80421A9
:10945400D4F804210222C4F818252022C8F8802157
:10946400A360C9E70021212002F0CCF9E4E702223D
:10947400044BC3F80423D0E72CC900201CC90020E6
:109484004CC9002000500040C9CA002000E100E09F
:1094940008B5074803F07EFB38B10648FFF718FE0D
:1094A4000448FEF78DFF002008BD6FF01200FBE7B3
:1094B400A8CF0000BD9400000A2838B50446074D23
:1094C40004D1AB680D2128465B689847AB68034814
:1094D4005B68E1B29847204638BD00BFA8CF0000C2
:1094E40038B545682B69B3B11035284601F024FB23
:1094F400044680B90146284601F0E2FA084B984236
:109504000BD122462846074901F0B0FA224605212C
:109514003120FFF747FB002038BD6FF00400FBE764
:109524000000AD0B2D950000430970B507D10B4B1E
:10953400596821B101250C68094E854001B970BDF7
:109544008A682A4002D030464B6898471CB1236889
:1095540021461C46F2E72346FAE700BF84C90020EF
:1095640080CF00002DE9F04340F206354668D0066E
:1095740048BF0320337B02EA050558BFC2F34010FD
:1095840087B001F01F07B5F5837F144647EA4317F8
:109594008DF8030042D00FD8062D18D007D8B5B1E6
:1095A400022D3DD06FF0150007B0BDE8F083B5F58E
:1095B400807FF7D101250AE040F20222954231D0A2
:1095C400B5F5407F30D0B5F5007FEBD102250123FE
:1095D400220303FA01F129D573689960326952BBF9
:1095E40007F01F037F0973D13B4A84F4803102EBF7
:1095F4008302D2F80032C1F30041C4F3404423F49F
:10960400E16344EA410423F007031C4344EA800471
:1096140044EA0524C2F800420020C5E70725D6E73E
:109624000425D4E70525D2E70325D0E7630344BF27
:109634007368D960D2E71036394630460DF102021C
:1096440001F022FA14F4403F80460CD139463046EA
:1096540003F097FA214B9845DED130469DF802106D
:1096640001F078FAD8E74FF0000901AB39463046EB
:1096740003AACDE90439CDE90199CDF80C9001F0A4
:1096840061F8164B98428DD114F4003315D09DF82F
:10969400033084F48034C4F300448DF80E3039462A
:1096A4004B46304603AA8DF80C508DF80D4001F05E
:1096B40045F90A4B9842CDD074E7CDE904333946D5
:1096C4000DF10303304603AA039301F03BF8F0E7DE
:1096D400803352F82330FFDE002584400000AD0BB8
:1096E400F0B5406801F01F04057B87B044EA4514D7
:1096F4000569002D5FD0B2F5001F00F1100506D1F9
:109704002146284603F03FFA002007B0F0BD0027A9
:10971400B2F5800F01AE0197776037D1B3F1007FC6
:1097240014BF052304238DF804300023CDE904631A
:109734000393836823FA01F111F0010118D1B2F106
:10974400A07F15D104F01F03620903F1800338D10F
:109754001D4A52F82330DB070AD40DF103063246C2
:109764002146284601F090F9184B984219D00296E8
:109774002146284603AA00F0E5FF154B98421DD167
:1097840001222146284601F0FDF9BDE7B3F1C06F7F
:1097940005D0B3F1007F14BF01230223C3E70323E1
:1097A400C1E73146284601F0E1F9094B9842DED081
:1097B4006FF00B00A9E76FF08500A6E76FF01500C6
:1097C400A3E751F82330FFDE002584400400AD0BED
:1097D4000000AD0B2DE9F04740F2FF16594FDFF8BA
:1097E40068C1DFF868E100EB8101814202D1002009
:1097F400BDE8F087046814F4804FC4F3C325C4F3B0
:10980400080340F08C80240EB34208BF4FF0FF33AE
:109814007D5D192C00F28680DFE804F00D13191C1D
:109824001F251C8484848436608484848484848492
:10983400848463787B7EC2F80C355C1C5BD1043075
:10984400D3E7C2F814355C1CF9D000245CE0C2F8FC
:109854000835F2E7C2F81035F5E75C1CC2F80835A4
:10986400EDD0002404E05C1CC2F80C35E7D00124E0
:109874005FEA531859D14FF00109DFF8CC8009FA97
:1098840003FAC8F80CA008E0C2F80835002DDAD1B4
:109894005C1CD4D000240625A146D0F800A00AF40C
:1098A4000048B8F1000F1CBF4FF00009012403F079
:1098B4001F085B093FD10CEB8808D8F80032CAF3C3
:1098C400412A03EA0E0343EA8A0343EA052343EAEF
:1098D400090343EA4403C8F80032B0E7C2F80C3580
:1098E400D4E7C2F86035B3F1FF3F0468A7D0C4F3EE
:1098F4000044002CBBD05C091AD10124DFF8488055
:1099040004FA03F9C8F80890A146C6E7C2F864351A
:10991400E9E7C2F86835E6E7C2F86C35E3E76FF0CB
:10992400150065E76FF0850062E70023DB60FFDE6A
:1099340000239B60FBE7002308F1800853F82830DC
:10994400F5E700BF27D5000000258440F0F8FCFFB0
:109954002DE9F04104460D46476803F069F94FF0DC
:10996400200888B9264B1B7873B16426606802F01E
:1099740074FFF0B9012003F05BF8013EF6D1002139
:10998400212001F03FFFF0E7EFF31186314688F321
:109994001288BFF36F8F606802F05FFFA8B986F387
:1099A4001188BFF36F8FEFE786F31188BFF36F8FD2
:1099B400E5E7EFF31186314688F31288BFF36F8F22
:1099C400606802F04AFF0028EED0BB6900201D70D9
:1099D4006368BA691B68C3F844250122C3F84825A3
:1099E400C3F82001D3F82041C3F85801D3F8580133
:1099F4009A6081F31188BFF36F8FBDE8F08100BFD7
:109A0400C9CA0020F7B50546426813691168C1F850
:109A14002435137D507D927D03431343C1F86C3587
:109A24006E68D6E9004313F0010348D02F6907F1AB
:109A34000C0003F006F8304B98425AD1387B04F1FD
:109A44000C0204F5907102F0F5FF387B012707FA48
:109A540000F000F0BBFB0823C4F80035B369C4F878
:109A640044350023C4F84835A760D4F85831002B96
:109A7400FBD00021C4F800156B6801AADC682046FD
:109A840002F034FE002805DB019B2268197918686E
:109A9400FFF7A0FE08216A681368C3F80015117A5D
:109AA40051B9D269C3F834250122C3F83825C3F863
:109AB4001011D3F810111A60002003B0F0BD082271
:109AC400C4F80025B269C4F84425C4F84835012314
:109AD400A360D4F82031002BFBD00023C4F820313C
:109AE400D4F820310123E3604FF48073C4F80433C5
:109AF400BBE76FF00400E0E70000AD0B01238340F7
:109B040070B5DC430B4AD2E8EF1F01EA0405C2E852
:109B1400E65F002EF7D14FF4803282400648C0F849
:109B24000823BFF35F8FBFF36F8F0B4214BF012075
:109B3400002070BD94C900200050014070B40E494B
:109B440022F07F46D1E90034D01AC31844F100044E
:109B5400C1E90034A6F50013B3F5400F09D2074B51
:109B64001B681A0A1B069C19054B42F10005C3E940
:109B7400004570BC01F0CABF40C7002098C900204E
:109B840048C70020D9B101230D4A8340D2E8EFCF62
:109B94004CEA030CC2E8E1CF0029F7D14FF480333B
:109BA400084A8340C2F80433074BD3E8AF3FC340AD
:109BB400DB0742BF4FF40012044BC3F80021704787
:109BC40094C900200050014090C9002000E100E049
:109BD4000D4B1868010A0006BFF35F8F0B4BD3F8D7
:109BE4000435181841F10001B3F5801F0AD2084B5F
:109BF400D3E90023904271EB030303D210F1807088
:109C040041F10001704700BF98C900200050014095
:109C140048C700202DE9F04F85B016461F4604467C
:109C24009DF840A0FFF76AFF0190FFF7D1FFB04213
:109C340071EB070352D23B4B301A67EB0101984298
:109C440071F100014DD2384B03EB0413D3E9022325
:109C54009F4208BF964258D04FF48038334908FADF
:109C640004F8204626F07F4BC1F8488302F0A9FE91
:109C74004FF00309584604F15005AD00ADB205F1AB
:109C8400804504F5A87305F5A8350293029A20F0DF
:109C94007F4341F82230C1F84483D1F80435244A83
:109CA400C01A033820F07F4090422ED9286868B14A
:109CB400D1F80435A3EB0B0020F07F40B0F5000F82
:109CC400039322D9204602F07CFE039BBAF1000FD5
:109CD40007D109EB030009F10109D7E7BAF1000F35
:109CE40009D06FF0150520460199FFF74BFF284670
:109CF40005B0BDE8F08F01230E4AA340D2E8EF0F70
:109D04001843C2E8E10F0029F8D107490E9823014E
:109D1400C8500F9B01EB04120025C2E9026753608F
:109D2400E1E700BF0100800030C70020005001407F
:109D3400FDFF7F0090C900207FB500254FF0FF3064
:109D44004FF0FF31194C1A4B0226C4F80833C4F8FB
:109D54004833184BC4F80855C3E902014FF4803363
:109D64004FF40012C4F80433134B0121C4F8046304
:109D74001520C3F880212A46FEF714FF1520FEF7AC
:109D8400F5FE01230D4AA360236013600C4B0D4ABA
:109D9400009328460023CDE90155FFF73BFF3046E9
:109DA400FFF7FCFA284604B070BD00BF0050014024
:109DB40003000F0030C7002000E100E094C9002038
:109DC400419B0000FFFF7F002DE9F7432E4BD3F8A2
:109DD400042390070BD5D3F8042142B10022C3F821
:109DE40004212A4AD3F80431136801331360264A44
:109DF400D2F80433D90326D5254BD3E8EF1F21F03D
:109E04000100C3E8E40F002CF7D1CB0702D4D2F849
:109E14004031C3B100251C4CC4F84051D4F8403142
:109E2400FFF7D6FEEFF31182202383F31288BFF3EA
:109E34006F8F184BD3E90267B042B94106D282F35F
:109E44001188BFF36F8F03B0BDE8F0834FF0FF3884
:109E5400D3E900104FF0FF391D60C3E902894FF4C4
:109E64008033C4F84833C4F84051D4F8403182F305
:109E74001188BFF36F8F0029E5D0009032463B462E
:109E840028468847DFE700BF0050014098C90020FA
:109E940090C9002030C7002030B5431C124C85B057
:109EA40005D08442A8BF0446012CB8BF0124FFF7A3
:109EB4008FFE0E4B0C4DD3E90013401AB0F5000F82
:109EC4000FD22218AA4228BF2A4600205218084955
:109ED400CDE90100009143F10003FFF79BFE05B0BB
:109EE40030BD2A46F1E700BFFFFF7F0040C70020D6
:109EF400419B000008B5FFF76BFE024B1B68C01ABC
:109F040008BD00BF40C700200020054BC3E9000086
:109F1400044BD3E8EF2FC3E8E10F0029F9D17047D0
:109F2400A0C900209CC9002070B50546054C064E0A
:109F3400B44200D370BDD4E90031284698470834B0
:109F4400F6E700BF58D5000058D50000014800F0DE
:109F540097BE00BF2D9F00000149024802F03DBD9D
:109F640029A00000A8C900202C4A00F00800136FA3
:109F7400072B2BD0132B1CD0052B3AD1526D12F486
:109F8400805F14BF1723162312F4006F18BF182321
:109F940012F4007F1EBF224B9B6B192312F4806FB7
:109FA40018BF1A2312F4807F25D112F4005F18BF62
:109FB4001C23CA6968BBC2F3080020B96FEA5222A5
:109FC4006FEA4222CA61184602F04DBAD36DDA072D
:109FD40013D49A0713D45A0713D41A0713D4DA06DE
:109FE40013D49A0613D413F0800F14BF2C23252303
:109FF400DFE70023DDE71B23DBE72623D9E727235D
:10A00400D7E72823D5E72923D3E72A23D1E72B232E
:10A01400CFE722F4FF7222F00102D3E7A8C900209F
:10A0240000ED00E000B5104B89B05A6AD86C00927C
:10A034009A6A20F005000192DA6A694602921A6B64
:10A0440003925A6B04929A6B0592DA6B06921A6C1D
:10A054001B6D07929B0748BF40F00400FFF784FF85
:10A0640009B05DF804FB00BFA8C900202DE9F04148
:10A074001F46164B044693F800800D461646A2B0C0
:10A08400B8F1000F15D1684602F0FEF93A463146A0
:10A094002846289BA0470446684602F0F6F9B8F122
:10A0A400000F02D00A4801F063F8204622B0BDE850
:10A0B400F0814FF0FF324FF0FF33054800F0E0FF2E
:10A0C4000028E0D06FF08304EFE700BFC9CA002086
:10A0D400CCC60020002300B589B0CDE9063303AB1C
:10A0E4000493042303900593A9B10B6806934B686A
:10A0F40007930223111E18BF01210848CDE900214E
:10A1040040F2F53104AA00F00BF80028B8BF012092
:10A1140009B05DF804FB0123ECE700BF0501004032
:10A1240010B4B1F5004F029C0ED2042B0CD8042CB1
:10A134000AD8240444EA0364134644EA01020146AB
:10A1440010BC0348FFF792BF6FF0800010BC70474B
:10A15400217C000030B50468ACB1B4FA84F3012268
:10A16400C3F11F03DBB29A4024EA0202D0E8EF5F96
:10A17400A54204D1C0E8EC2FBCF1000FF6D1EAD11E
:10A1840002480B7030BD0248FCE700BF0000AD0B75
:10A194000200AD0B10B50368CB40DB0710D40123DC
:10A1A4008B40026843EA0201D0E8EF4F944204D1A5
:10A1B400C0E8EC1FBCF1000FF6D1F2D1014810BD8C
:10A1C4000148FCE70000AD0B0400AD0B014BC3F8E4
:10A1D4000405704700700140F7B5044618B1012822
:10A1E40022D003B0F0BD0222264B0646C3F8082352
:10A1F4000122DA60C3F80401D3F80431012342F2E6
:10A204001075204F8DF80730D4B1012CE9D1D7F85F
:10A214000C3403F4803386BB002BE2D0012002F01F
:10A2240007FC013DF3D1DCE70022164B0DF10706D4
:10A23400C3F808035860C3F80021D3F80031DDE700
:10A24400D7F8183403F480333EB9002BC9D0012069
:10A2540002F0EEFB013DF3D1C3E7D7F8182402F076
:10A2640003023270002BBCD09DF807000128B8D13E
:10A2740002F0DEFB013DC7D1B3E7D7F80C2402F0AE
:10A284000102EEE700500040044B1A7922B9012282
:10A2940018601A7102487047024870471CCA0020AF
:10A2A4000000AD0B0C00AD0B08B5074B1B6833B1B8
:10A2B4000520FEF769FC10B90520FEF757FC0122C2
:10A2C400024BC3F8182508BD1CCA002000500040EA
:10A2D40010B510B1012848D010BD294BD3F818147B
:10A2E400D3F81824C90324D502F00303022B05D0A4
:10A2F400012B02D00020FFF76FFF0123204A022028
:10A30400C2F8183508224FF48273002103F1804308
:10A3140003F5A04319601C68012402F1804202F590
:10A32400A0421460174A12681AB3154BC3F8040309
:10A33400D2E7D3F81424D207DFD5D3F81C2402F0D3
:10A344000302013A012AD5D80E4A12681AB1022230
:10A35400C3F80423C0E7D3F80421002AFBD0002269
:10A36400C3F80421D3F80431B6E700224FF4807314
:10A37400CBE71A68002AFCD019601B68ACE700BF61
:10A38400005000401CCA002010B5164BD3F8002121
:10A3940052B10020C3F80001D3F800210122C3F810
:10A3A4000823114B1B6898470E4BD3F8042182B144
:10A3B4000022C3F80421D3F80421D3F81824D3F8D5
:10A3C4001824022102F00302012A03D1C3F818154C
:10A3D4009A6010BDC3F80813034B0120BDE8104078
:10A3E4001B681847005000401CCA00200146014861
:10A3F400FFF7B0BEDCC50020036803F01F025B0951
:10A404000260024818BF0020704700BF0025844046
:10A4140070B432240279184B624352FA81F2083242
:10A4240033F81240E10524D5C4F3432124F4F8544D
:10A4340023F8124064240026027904FB02340E340B
:10A4440034F8025F15F4807F03D0C5F34325A94295
:10A454000FD00136202EF3D164240025624302EB91
:10A46400C1029D50027904FB023070BC5830FFF7E2
:10A4740091BE70BC704700BFE0C500203223584332
:10A48400034B50FA81F1083133F81100400B704747
:10A49400E0C5002032235843054B50FA81F10831BE
:10A4A40033F8110080F00200C0F34000704700BF91
:10A4B400E0C5002032235843044B50FA81F108319F
:10A4C40033F81100C0F34010704700BFE0C500200E
:10A4D400024611F0010004D003490B6A13600B62B9
:10A4E40003B90020704700BF00258440F0B505463D
:10A4F40000200126044607468C420BD1114BD3F8A9
:10A504007C2132B10022C3F87C21D3F87C3140F0A5
:10A514000040F0BDE3B29B0003F580729B0806FA8D
:10A5240003F31D420BD002F1804202F54432D2F80B
:10A5340000C0BCF1000F02D0176012681843013448
:10A54400DAE700BF001003402DE9F3470546544BFA
:10A55400296DD3F80403C0B240F00040FFF7C6FFF2
:10A56400061E18DA00236846E96D00934FF00108CF
:10A57400FFF7AEFF95F85C30DA0758D4296D4FF039
:10A584000040FFF7B3FF6846E96DFFF7A1FF00281D
:10A59400F0D126F000460124002E68D102B0BDE8B7
:10A5A400F08794FAA4F4B4FA84F4E00804F10803FC
:10A5B40035F8139004F007021DF8003008FA02F28F
:10A5C40023EA02030DF8003001A80194FFF714FFF9
:10A5D400019B4FEA9901803350F82370C9F3820A32
:10A5E4004B07D146C7F3014725D552462846214695
:10A5F40002F083FA01A80194FFF7FEFE019BFFB26B
:10A60400803350F82330C3F301439F4207D1002124
:10A61400204602F063FA3946204602F05FFA01A8A8
:10A624000194FFF7E9FE019B08FA03F30362009C1F
:10A63400002CB6D1A2E7022F0DD10321204602F04F
:10A644004DFA0AF00503012BE9D14A462146284672
:10A6540002F053FAE3E70221204602F03FFABAF18E
:10A66400030FF2D0032FDAD1BAF1020FECE796FA16
:10A67400A6F3B3FA83F304FA03F29B0003F18043D5
:10A6840003F54433D3F8101526EA0206D3F810254F
:10A694002846C2F30142C1F3042102F02EFA7BE7FB
:10A6A4000010034032222DE9F3410379214F534333
:10A6B40053FA81F3083337F813300546DB070C46A9
:10A6C400CEB234D502F036FA95F8048021464046DD
:10A6D400FFF7F0FE60B121464046FFF7CFFE2A683F
:10A6E40000B202EB80030022C3F81025C3F8102542
:10A6F40028462146FFF78CFE32222B7901A802FB63
:10A7040003660023083627F816300194FFF774FE19
:10A71400019B00EB8300D0F80022074B134043F069
:10A724000203C0F80032054802B0BDE8F0810448D5
:10A73400FAE700BFE0C50020F0F8FCFF0000AD0B15
:10A744000400AD0B2DE9F043D2F8009004460D4609
:10A75400164685B0B9F1000F34D032220079DFF803
:10A76400D081424352FA81F2083238F81230CFB223
:10A774009B0703D5FFF79EFE00283BD100230DF174
:10A784000F02CDE900338DF80E308DF80F300DF146
:10A794000E014B46284602F058F93221237901FB79
:10A7A4000373083338F8132022F0020228F8132028
:10A7B400237901FB0377083738F8173043F0010396
:10A7C40028F817307368002B43D04FF0320C2279ED
:10A7D4001F780CFB02F2D3F804E052FA85F2544BD2
:10A7E400083233F81200E9B210F0020F04D0BEF1BF
:10A7F400000F18D04F482FE020F4604020F02000D4
:10A8040023F81200BEF1000F0DD0032FF2D87268A6
:10A814005068226890F800E002EB8E02FFB9C2F89B
:10A824001075C2F810754FF0320C22790CFB02122D
:10A83400083233F8120020F01C0023F812002279A9
:10A844000CFB0211083133F8112042EA870223F885
:10A854001120B36863BB384805B0BDE8F083D2F873
:10A86400108528F00308C2F81085226802EB8E00D8
:10A87400D0F8102522F4473222F44072C0F8102593
:10A884002A02D0F8108502F4F85242EA074242EA5A
:10A894000802C0F8102522790CFB0212083233F8A2
:10A8A400120040EA4E3040F0200023F81200BAE7CC
:10A8B4002946D3E900872046FFF7AAFDB8F1000F27
:10A8C400C9D0642320791A4E4343F218F3589845AB
:10A8D40004D153689F4201D100210CE0642303FB9F
:10A8E40000600DF10F015830FFF734FC124B984211
:10A8F400B2D19DF80F1064222379534303EBC103B3
:10A9040046F8038023795343322203EBC1033344D3
:10A914005F602379534353FA85F3083336F81320E1
:10A9240042EA412242F4807226F8132093E700BFE2
:10A93400E0C500200400AD0B0000AD0B2DE9F04391
:10A9440005460C461F4685B09AB306793046FFF794
:10A95400A1FD20B121463046FFF7ACFD80BB322378
:10A964005E43DFF8FC9056FA84F6083639F8163060
:10A974005FFA84F813F01C0F02D05378012B1FD018
:10A9840001238DF80F3000232046CDE900230DF17B
:10A994000F01931C013202F058F832222B7902FB8A
:10A9A400038808F1080839F8183043F0030329F83C
:10A9B4001830002F51D021462879FFF76BFD18B1CC
:10A9C400284805B0BDE8F0833E782B68244903EBA2
:10A9D4008603C3F81005C3F8100532202B794FEA1B
:10A9E400860C434353FA84F3083331F813E0E2B29C
:10A9F4002EF4604E2EF0200E21F813E097F801E0BB
:10AA0400BEF1000F29D02B68BF789C44DCF81035C8
:10AA14004FEA0E4E23F4981323F4F853CCF8103570
:10AA2400230203F4F8530EF4403E3F05DCF810858E
:10AA340043EA0E0307F480173B4343EA0803CCF8C8
:10AA440010352B7900FB0322083231F8123043EA27
:10AA5400463343F0200321F812300348B1E700BF26
:10AA6400E0C500200400AD0B0000AD0B30B564253B
:10AA74000479044B05FB0434A160017905FB01331F
:10AA8400DA6030BDE0C5002038B505790C462846AB
:10AA9400FFF710FD58B132235D43064B55FA84F499
:10AAA400083433F8143004485B0B137038BD034882
:10AAB400FCE700BFE0C500200000AD0B0400AD0BB7
:10AAC4002DE9F041064607796420184D00FB07582C
:10AAD40098F8604044BB404621464022103002F0C2
:10AAE4009AF921463068D8F850608E4212D100237A
:10AAF400C0F87C31D0F87C3140F30730FEF736F8EB
:10AB0400642303FB07550123094885F86030AB65CE
:10AB1400BDE8F081CBB29B0003F580727C2B04BFAF
:10AB2400845083580131E0E70248F1E7E0C5002092
:10AB34000000AD0B0C00AD0B64210279044B01FB4A
:10AB4400023393F86000003818BF0120704700BF3B
:10AB5400E0C5002064235422007913FB002302483B
:10AB64001844FFF717BB00BFE0C50020642354223C
:10AB7400007913FB002302481844FFF7EBBA00BF27
:10AB8400E0C5002073B503680D46D3F804130646E8
:10AB94000029A4BF4FF00041C3F8041304792946E7
:10ABA4002046FFF787FC00B329462046FFF772FCD6
:10ABB400D8B129462046FFF761FC002501B234686C
:10ABC400890001F58073E550E35833680B44D3F8EA
:10ABD400101541F00101C3F8101522B101233268A8
:10ABE4008340C2F8043302B070BD32235C43104B7F
:10ABF40054FA85F4083433F81430C3F38203042B75
:10AC040011D0052B11D001A80195FFF7F5FB019A8E
:10AC14000369D34003F00103991C284602B0BDE840
:10AC2400704001F05BBF0321F7E70221F5E700BFA5
:10AC3400E0C500200148FFF787BC00BF44C60020E0
:10AC4400F8B5012600270B4B0B4DD3F80C4304B980
:10AC5400F8BD94FAA4F0B0FA80F006FA00F324EAFE
:10AC64000304064B82009F502B68002BEFD0A96889
:10AC74009847ECE700A0024024CA002000A102404B
:10AC8400014B1860704700BF30CA002038B5EFF39D
:10AC94001185202383F31288BFF36F8F064B9C68C2
:10ACA40001F08BFF85F31188BFF36F8F2046BDE859
:10ACB4003840FDF7D1BE00BF34CA002038B5094B77
:10ACC40053F82040013053F82050A54200D838BD35
:10ACD400636823B1204601F073FF0834F5E7236865
:10ACE4009847FAE74CD30000012270B52A4B0320A1
:10ACF40086B01A70FFF7E2FFFDF7AEFC01F07CFFAF
:10AD04000420FFF7DBFF254C254D2646AE4204F117
:10AD1400300410D300F0B8FC204C224EAC4226D3B1
:10AD240000F0C6FCFDF7C4FA1F4A137B23F00103AD
:10AD3400137306B070BD54F80C3C059354F8103CE2
:10AD4400049354F8143C039354F8183C029354F8B5
:10AD54001C3C019354F8203C009354E90A2354E921
:10AD64000C0100F08BFA54F8303C5E65CDE7D4E971
:10AD74000A23B3F1FF3F08BFB2F1FF3F05D052EA07
:10AD84000301206803D101F059FF3034C6E731468E
:10AD9400183000F041FEF8E7C9CA0020C4D1000011
:10ADA400C4D100004DCD0000D0C7002008B5034831
:10ADB400034A0021121A01F01BFF08BD30C700200E
:10ADC400CCCA00200023012270B586B0CDE904234B
:10ADD4000F220193CDE9023214234FF4A0720E4DD9
:10ADE4000E4E03FB00550E4906EBC016044602FB4B
:10ADF40000110C4B3046009500F040FA737B2C7424
:10AE040023F004037373084B013403EBC423EE6093
:10AE14006B6006B070BD00BF34CA002050C700206C
:10AE2400D0D200200FCC0000D0CA0020BFB5002033
:10AE3400FFF744FF2D4B03F5006282F3088883F388
:10AE44000A880024E0232A4D2A4E85F82230EC7724
:10AE54002C766C76AC7685F820406B6A264F43F4EA
:10AE6400E0236B6285F82340FDF774FDFDF70EFFC8
:10AE74004FF0FF33AB62EB62FEF794F8FDF72AFF65
:10AE840040F201131D4D2846AB81C5E9184400F07A
:10AE9400BDFEB56001F07DFE0120FFF70FFF02202B
:10AEA400174DFFF70BFF00F023FC164B756105935C
:10AEB400012315494FF48062CDE9034328463B46FC
:10AEC400CDE90144009400F0D9F906466A7B28468E
:10AED40022F004026A7301F0EDFE2046FFF772FFD0
:10AEE4003A4631462846FDF7ADFE00BFD0CA0020E1
:10AEF40000ED00E034CA0020EDAC000050C8002092
:10AF0400D0C7002043D5000010D4002038B5064C2B
:10AF1400064DAC4201D3002038BD2046D4E90112CD
:10AF240001F06BFE1434F4E7B8C60020CCC6002050
:10AF34002DE9F34104460E4600F10808EFF31187AA
:10AF4400202181F31288BFF36F8F056AC1688D4297
:10AF54002AD201F0FDFE31460546A26878B10024EC
:10AF6400406901F04BFF2846AC6701F0A3FE404660
:10AF7400394600F045FB204602B0BDE8F081E069A7
:10AF840001F03CFF0020E369A26813446269E361B5
:10AF9400934204BF2369E361236A0133236287F385
:10AFA4001188BFF36F8FE7E752EA03010AD007491C
:10AFB40089684E61CDE9002339460246404600F0D7
:10AFC400AFFAD9E76FF02200E9E700BF34CA0020E6
:10AFD400F7B50446084604F10807EFF3118620216B
:10AFE40081F31288BFF36F8F216A002931D0A268E0
:10AFF400A16901F003FFA369A268204613446269B2
:10B00400A361934204BF2369A361236A013B2362C2
:10B0140001F09EFE054660B34169A268E06901F053
:10B02400EDFEE369A268284613446269E361934232
:10B0340004BF2369E361236A013323620024AC67FC
:10B0440001F038FE3846314600F0DAFA204603B003
:10B05400F0BD52EA03010AD0084989684861CDE984
:10B06400002331462246384600F05AFAEFE76FF0E3
:10B07400220086F31188BFF36F8FE8E734CA0020FB
:10B084002DE9F341044617461E46EFF311882023A9
:10B0940083F31288BFF36F8FC368334A7BB1806830
:10B0A4009168884219D057EA060318D188F31188A9
:10B0B400BFF36F8F6FF00F0002B0BDE8F0819168AD
:10B0C40091F90E100133E36093682161A36088F362
:10B0D4001188BFF36F8F0020EEE72169F2E791F941
:10B0E4000E1090F90E306FF07E029942A8BF1946F7
:10B0F4009142B8BF11468B422DDD01F091FD05460A
:10B1040022464146CDE90076184800F009FA0028A5
:10B11400E1D0EFF31186202383F31288BFF36F8FFE
:10B12400A068D0B1236821699C420AD04BB193F93D
:10B134000E309942A8BF19466FF07E039942B8BFFA
:10B14400194601F06DFD40B13146084800F058FA47
:10B154006FF00A00B0E70025D2E7002DF4D186F3A2
:10B164001188BFF36F8FF3E734CA0020CACA0020E6
:10B1740038B58368044663B3194A926893422BD165
:10B18400C368012B03D9013BC360002038BDEFF332
:10B194001185202383F31288BFF36F8F01698068C0
:10B1A40001F03EFD204601F0D3FDA06058B190F9B6
:10B1B4000E2022610022826701F07CFD29460948A5
:10B1C40000F01EFAE1E7E06085F31188BFF36F8FAA
:10B1D400DBE76FF01500D9E74FF0FF30D6E700BF8B
:10B1E40034CA0020CACA002038B50446EFF31185DA
:10B1F400202383F31288BFF36F8F01F0A9FD48B1B8
:10B204000022826701F056FD2946BDE83840074810
:10B2140000F0F6B9D4E902329A4218BF0133A360B0
:10B2240085F31188BFF36F8F38BD00BFCACA0020F1
:10B2340013B5EFF31181202484F31288BFF36F8FC9
:10B24400846844B1013C846081F31188BFF36F8F3B
:10B25400002002B010BD52EA030406D181F3118824
:10B26400BFF36F8F6FF00F00F3E7CDE900230246C1
:10B27400014800F055F9ECE7CACA00202DE9F04373
:10B28400984685B000F15803C0E91633109B002698
:10B2940003730423073222F0070543730F9B01EB6A
:10B2A40005090F4683734946C0E906668660C6737E
:10B2B4000446FDF7E3F90E9B073020F00700A06673
:10B2C400C4E9187502930D9BA9EB000901930C9B2B
:10B2D4004A460093394643462046FDF795FC054B04
:10B2E40066659B6803B1DB6E4846E36605B0BDE85E
:10B2F400F08300BF34CA002038B50D4D2B4653F8F7
:10B30400184F9C4200D004B9EC68AB6838B95A7B3A
:10B31400D20604D1A26912B9DA897F2A05D89C42DF
:10B3240002D0204600F0C0FA23466B6138BD00BF4E
:10B3340034CA002008B590F90D200146002A437B49
:10B3440004DA03F07F03437301F07AFC044B98683A
:10B35400431A58425841BDE80840FFF7CDBF00BF2B
:10B3640034CA002070B490F90D30427B002B29DBE5
:10B37400D30627D183692BBB134962F07F02427342
:10B384000A4652F8184F944218BF2346CC6923B991
:10B39400C0E900242060C8610CE090F90E5093F9D4
:10B3A4000E60B5420AD0AE4208DD5A68C0E90032E8
:10B3B40010605860002070BCFFF79EBF9C42E7D02D
:10B3C4001B68E4E770BC704734CA0020002A2DE9EA
:10B3D400F0410E460CBF10210821427B0446114265
:10B3E4000FD141EA0203D20918D1437308291BD0B3
:10B3F4000120FFF781FFBFF35F8F637B23F06003BE
:10B404006373284B9B68A34245D1EFF30583002B5C
:10B4140041D13046BDE8F041FDF734BB03F07F0372
:10B42400437301F00DFCE1E7A36813B1204601F07A
:10B434000FFC04F1180001F0C8FCA56D04F15807D5
:10B44400AF4211D04FF0000875B1284601F000FC5E
:10B4540005F1180001F0B9FC2846C5F87880FFF71B
:10B4640081FFA56DAF42EFD10E4FBB689C42BFD1A7
:10B47400EFF30583002BBBD00120FFF73DFF40F223
:10B484000113094DAB8100232846C5E9183300F0A8
:10B49400BDFBBD60AFE786F31188BFF36F8FBDE8D6
:10B4A400F08100BF34CA002050C8002070B590F964
:10B4B4000D200146002A437B04DA03F07F03437323
:10B4C40001F0BEFB154A4B7B104663F07F034B73C0
:10B4D40050F8183FD469834208BF002323B9C1E957
:10B4E40000042160D1610CE091F90E5093F90E60D3
:10B4F400B5420ED0AE420CDD5868C1E9003001609F
:10B5040059609068BDE87040431A58425841FFF7AB
:10B51400F3BE9C42E3D01B68E0E700BF34CA0020BE
:10B52400F8B5124B0C46DDE9067611469868104AC8
:10B534001060EFF31182202282F31288BFF36F8F21
:10B544009D68284601F08EFBB6F1FF3F08BFB7F1B6
:10B55400FF3F06D03A463346064905F1180000F08D
:10B564005BFA2046BDE8F840FDF78CBA34CA0020E7
:10B5740054CA00204DCD0000F8B50446EFF31186FF
:10B58400202383F31288BFF36F8F437B49B2DA061B
:10B5940019D18569BDB903F07F03437301F050FBF2
:10B5A400437B164A63F07F0343731346817353F856
:10B5B400180F984218BF0546D0695DB9C4E9003038
:10B5C4000460D46111E00020A17386F31188BFF3F5
:10B5D4006F8FF8BD95F90E70B9420BD08F4209DD1B
:10B5E4006B68C4E900531C606C600120FFF784FEA3
:10B5F4000120EAE7A842E1D02D68DEE734CA002042
:10B6040049B9EFF3058030B9054B5A699B689A42F2
:10B6140001D0FDF737BA81F31188BFF36F8F7047FC
:10B6240034CA002010B5EFF31184202282F312886B
:10B63400BFF36F8F427B510704D484F31188BFF3A7
:10B644006F8F10BD22F004024273FFF78BFE214678
:10B65400BDE810400148FFF7D3BF00BFCACA0020AD
:10B66400034648B9EFF3058232B9064A5169926834
:10B67400914201D0FDF706BA83F31188BFF36F8FAF
:10B68400704700BF34CA0020EFF31181202383F3F5
:10B694001288BFF36F8F054B9A68D37B013BD3733A
:10B6A40081F31188BFF36F8F704700BF34CA002045
:10B6B40038B5EFF31185202484F31288BFF36F8F1C
:10B6C4000A4B00209A68D37B0133D373FFF714FE2F
:10B6D40085F31188BFF36F8FEFF3118084F3128821
:10B6E400BFF36F8FBDE83840FFF7BABF34CA0020FC
:10B6F400024B03F11802C3E90622704734CA002042
:10B70400F8B5EFF31185202383F31288BFF36F8F0D
:10B7140019498868437B03F07F03437301F090FA6F
:10B7240008468B685A7B62F07F025A7350F8182FD0
:10B73400CC69824208BF002222B9C3E90004236015
:10B74400CB610CE093F90E6092F90E70BE420ED0FC
:10B75400B7420CDD5168C3E900210B60536001203E
:10B76400FFF7CAFD2846BDE8F840FDF78BB9A242B1
:10B77400E3D01268E0E700BF34CA002050EA0103B6
:10B784002DE9F04105460E4603D1FFF7B9FF00202D
:10B794002BE0831C71F1FF3329DB01F02BFB2C1808
:10B7A400EFF31188202383F31288BFF36F8F124FB6
:10B7B400124BB8681860FFF7BDFDB86810492A46F7
:10B7C4003346183000F028F9BA684046537B43F0FA
:10B7D40010035373FDF756F901F00CFB201A63EBC9
:10B7E4000303012873F10003D1DBBDE8F0816FF09E
:10B7F4000104241AD4E700BF34CA002054CA00202C
:10B804004DCD0000B1F1FF3F08BFB0F1FF3F08B5D7
:10B8140006D10A4B986801F05CFA4FF0FF3008BD7E
:10B82400FFF7ACFF4FF47A7147F6FF730022C0FBB9
:10B834000132D80B40EA4240F1E700BF34CA00208D
:10B84400014B9868704700BF34CA00200122044BA2
:10B85400C01A044BC0105843034B1A54704700BF1E
:10B86400D0C80020ABAAAAAACACA0020C3897F2BC9
:10B8740012D80A4B1B6863B1094B90F90E201B6860
:10B884009A4209DB437BDB0606D1064BC31A18BF79
:10B89400012303F0010070470023FAE75CCA00208B
:10B8A40058CA002050C7002070B50E4B0E4C1E7CA9
:10B8B400054606EB460304EBC304204601F085FA73
:10B8C40000220A4B28469A55FFF7D0FF48B1084B8F
:10B8D4002046BDE870401A680649013AD31700F0C3
:10B8E4009BB870BD34CA0020D0C80020CACA00204A
:10B8F4005CCA002051B8000038B5EFF3118520234D
:10B9040083F31288BFF36F8F104B114A9C68106841
:10B91400A04206D1FFF7C8FF85F31188BFF36F8FEC
:10B9240038BD00211B7C11600A4AD35C002BF3D084
:10B934002046FFF79BFF0028EED0637BDB0602D195
:10B944002046FFF7B3FD2046E4E700BF34CA0020D9
:10B9540054CA0020CACA002008B50648064A074946
:10B96400121A01F047F9BDE80840054A054906489E
:10B9740001F040B980C5002030C7002078D5000010
:10B984000000000060D5000080C50020034B1B6848
:10B994000BB9FEF7AFBA0020704700BF60CA0020A1
:10B9A40030B570B10B4B5B6898420AD0036843B161
:10B9B400D3E90421D0E90445121941EB0501C3E997
:10B9C4000421D0E9003213605A600023C0E9003337
:10B9D40030BD00BFA8C6002010B50E4B1C689C42A9
:10B9E40004D1FFF7D3FF6FF0004010BDFFF7CEFF87
:10B9F400002CF8D0D4E904321B1A62EBE072B3F1E4
:10BA0400004F72F10001EEDA002AACBF18460020A4
:10BA1400EBE700BFA8C60020B3F1FF3F08BFB2F1B7
:10BA2400FF3FF8B504461D4616465ED08160EFF32D
:10BA34001187202383F31288BFF36F8F013275F1CE
:10BA4400FF3324DA6FF001032D49D1E900209B1A5A
:10BA54004FF0FF3262EB00009E1B60EB0500012EED
:10BA640070F1000301DA01260020C4E90460254EC8
:10BA7400D6F800C07568B44508BF4FF0000CBCF19F
:10BA8400000F0DD1C4E900652C6074601CE0FFF761
:10BA94007DFF013645F10005361845EBE070E4E71B
:10BAA400DCE90420D4E90431934271EB000E1DDA81
:10BAB400D21ADCF8043060EB0100CCE90420C4E9BC
:10BAC40000C31C60CCF804403368B34209D09C42E4
:10BAD40007D10D4B1C6824B9FFF77EFF2146FEF702
:10BAE400DBF987F31188BFF36F8FF8BD9B1A61EB05
:10BAF4000001AC45C4E90431C4D0DCF800C0BEE7A1
:10BB0400E8C80020A8C6002060CA00202DE9F84F2C
:10BB1400EFF3118C202383F31288BFF36F8FDFF8C8
:10BB2400B0A0DFF8B0900024C9F80000DAF80000F3
:10BB34000025504508BF0020274FE046D7E90021E3
:10BB4400D9F8003078B3D0E9046C4FEAE37EB3420D
:10BB54007EEB0C0B05DAF61A6CEB0E04C0E90464F8
:10BB640021E0B21841EBE671C0E90445C7E90021C0
:10BB7400FFF716FF88F31188BFF36F8F8368984728
:10BB8400EFF31188202383F31288BFF36F8FD9F862
:10BB94000030DAF800009B1B5045C446C9F8003059
:10BBA400CBD1D7E9002100249A1841EBE373C7E90C
:10BBB4000023C9F80040FFF70FFF2146FEF76CF998
:10BBC40088F31188BFF36F8FBDE8F84FFFF794BE79
:10BBD400A8C6002060CA0020E8C8002010B5EFF312
:10BBE4001184202383F31288BFF36F8FFFF7CEFEF7
:10BBF4000346054AD2E90001181841EBE37184F3C6
:10BC04001188BFF36F8F10BDE8C80020014BC366D5
:10BC1400704700BFB8C600202DE9F04F43688DB0CF
:10BC240015468046029383789A0740F10D810024DB
:10BC34000E78002E00F00A81252E0BD04B1C0393A6
:10BC4400013441463046029B98470028C0F2F680F2
:10BC54000399EDE74E788B1C252E0393F0D0002733
:10BC6400B946BB46BBF11F0F38D8A6F12003102BF1
:10BC74000AD8DFE803F02A0909300909092109096A
:10BC84000928092D09091F00A6F13003092B33D90E
:10BC94002A2E37D11BF0400F55F8043B40F0828028
:10BCA400002BA7BF4BF0200B9946C3F100094BF0C2
:10BCB400280B01E04BF0010B039B13F8016B03937A
:10BCC400002ECFD130E04BF0020B4BF0040BF3E726
:10BCD4004BF0080BF0E74BF0100BEDE7BBF17F0FD7
:10BCE40019D8A6F13003092BD2D81BF0400F03D08A
:10BCF4000A2101FB0737DFE70A214BF0200B01FB88
:10BD04000939D9E72E2E06D11BF0400F40F09E8052
:10BD14004BF0400BD0E76C2E31D02BD8682E36D0A8
:10BD24006A2E3CD04C2E3AD0002F46F02003B8BFE8
:10BD34002BF04002A3F16501BCBF00271FFA82FB70
:10BD4400022901D9612B2FD107350727DFF8ACA2CF
:10BD540025F0070508351BF0080F66D00AEB070B22
:10BD640056465E4563D1A4EB0A0AA9EB070906EB24
:10BD74000A026FE1742E9FD07A2E9DD0D4E71BF077
:10BD8400800F18BF4BF4007B4BF0800B94E71BF43F
:10BD9400807F18BF4BF4007B4BF4807B8CE74BF423
:10BDA400207B89E71F4687E7A6F16301122900F289
:10BDB400F080DFE811F013004F00EE00EE00EE001B
:10BDC400EE004F00EE00EE00EE00EE00EE00FE008E
:10BDD400E900EE00EE001B00EE00AF0055F8043B56
:10BDE40001270DF1180A8DF81830B4E755F804ABA3
:10BDF400834BBAF1000F08BF9A461BF0400F504620
:10BE040014BF39464FF0FF3101F00DF80746A2E7A1
:10BE140041462020029B984700280FDB013EB74291
:10BE2400F6D34C44B146A41B98E74E46F7E7414687
:10BE340016F8010B029B9847002892DA98F8023012
:10BE440043F0040388F802304FF0FF3420460DB06D
:10BE5400BDE8F08F1BF0800F34D01BF4007F2CD092
:10BE6400073525F00705AA4669685AF8080B2BF030
:10BE740010050029ADB237DA404245F4806561EB24
:10BE840041010DF1180B0A235A4600F0D8FFA0EB2C
:10BE94000B0301936B0662D5019B25F001019F42C0
:10BEA40089B240F3A180002E00F0998015F01002B1
:10BEB40040F09C80BB460D4623E0AA465AF8040B8A
:10BEC400C117D4E7AA461BF4807F5AF8041B01D19A
:10BED4000846F5E71BF4007F19BF48B241F3C011CF
:10BEE40008B241F3C031C2E750EA0103C9D11BF0E3
:10BEF400400FC6D0002FC4D12BF01102BB460197CE
:10BF040095B240F2064115EA01021CBF0BF1010B88
:10BF140000222CE02BF010020A231FFA82FB1BF0F4
:10BF2400800C49D01BF4007115BF0735AA4625F0D3
:10BF340007055AF8040B1EBFAA4669685AF8080B8D
:10BF440050EA010545D12BF016051BF0400FADB2A8
:10BF540042D0002F40D12BF01702019795B215F073
:10BF6400100248D0019B002E42D103F1010B290796
:10BF74005AD4EB0706D5D9456FDDA9EB0B0301991C
:10BF8400CB465F185B4649E04BF0100B1023782634
:10BF9400C5E7782B04D1C6F1780343F01003BEE75C
:10BFA40041462520029B98470028FFF647AF0234FC
:10BFB40047E608230026B2E7AA461BF480715AF824
:10BFC400040BBDD01BF400711ABFC0B2614680B22D
:10BFD400B6E72BF0060295B20DF1180B54E725F0E5
:10BFE4001105BB46ADB28CE70D46B8E73B460D469E
:10BFF40003F1020BBBE7DDF804B082E74FD5000084
:10C0040048D50000CDE9043241462020029B9847E0
:10C014000028FFF613AF049B059A01339945F1DC20
:10C02400A4EB0B019B46CC180AB341463020029B7B
:10C0340098470028FFF602AF8EB901342744391B14
:10C04400019B994224DC1D4655BB019AA9EB0B09BF
:10C05400554622441446914433E0019F92E702344A
:10C0640041463046029B98470028E7DAE6E640F26C
:10C0740006410D42E2D015F0020F04F101044146DD
:10C0840014BF2B20202015F4806F18BF2D20E9E762
:10C0940041463020029B013498470028CFDACDE690
:10C0A40006AB013D4146585D029B98470028CBDA18
:10C0B400C4E641462020029B013498470028FFF63D
:10C0C400BDAEA9EB0403002BF3DCC1E57047836824
:10C0D4001B6A03B118477047836800EBC101B3F5CD
:10C0E400004F2CBF51F8220031F81200704700EBCA
:10C0F400C1018068B0F5004F2CBF41F8223021F80F
:10C1040012307047012208B5FFF7E6FFD04008BDA2
:10C11400836800EBC101B3F5004F08D34B681AB133
:10C1240043F001034B60704723F00103FAE74B88A7
:10C134001AB143F001034B80704723F00103FAE77F
:10C1440053000122FFF7D3BFB0F5004F34BF0423DF
:10C154000823481C0833A0EBD300B0FA80F0C0F1E8
:10C164001F0070472DE9F0410D4686680446FFF72D
:10C17400C9FFB6F5004F014601D3012832D030463D
:10C18400FFF7E2FF04EB80010E6996B90122E36830
:10C1940082401343E36002220D612B462946204668
:10C1A400FFF7A5FF032229462046BDE8F041FFF72B
:10C1B4009EBF022231462046FFF78EFF0746034604
:10C1C40029462046FFF793FF03223346294620469B
:10C1D400FFF78DFF39462B462046FFF788FF0222E2
:10C1E4003146E1E7BDE8F081B2F5802F2CBF08238A
:10C1F40004232DE9F0410026D21A8C18CD1D25F018
:10C20400070524F00704641BE40805602146204662
:10C21400AC60EE60FFF798FF421D9200013002F11E
:10C2240007074FEAD7073146A2F1100205F11000C3
:10C23400B8BF324600F0EFFD3A4631462846FFF7D4
:10C244007FFF3346324631462846FFF750FFA4EBC2
:10C254000708284631460122FFF75AFF424639466D
:10C26400FFF76EFF3B46324639462846FFF73FFF4D
:10C2740021462846FFF764FF4346324621462846B6
:10C28400FFF735FF214628460122FFF741FF3946D3
:10C29400BDE8F041FFF766BF002070470FB407B553
:10C2A40004A951F8040B0191FCF790F803B05DF870
:10C2B40004EB04B07047038B13F0070305D1036844
:10C2C400002B0CBF002003207047022B05D1408BAC
:10C2D400B0FA80F0400980007047012B05D1036853
:10C2E400002B0CBF0020052070470020704710B5BC
:10C2F4000C4600B111B96FF0150010BD081D00F017
:10C3040093F80028F9D1A368032BF6D9F3E72DE9B4
:10C31400F0410D4607461946281D90461E4600F07A
:10C3240094F8044638B13346424629463846A44672
:10C33400BDE8F0416047BDE8F08110B4EFF311822D
:10C34400202484F31288BFF36F8F416110BC012154
:10C35400FCF76EB838B50C46054658B151B10B68B8
:10C3640043B14B6833B11C22002100F054FD00207E
:10C374002C6138BD6FF01500FBE770B505460E461D
:10C38400FFF7B5FF041E14DBEFF31182202383F3C0
:10C394001288BFF36F8F4FF6FF716B8B2C8B8B4220
:10C3A40004F0070407D182F31188BFF36F8F6FF095
:10C3B4000A04204670BD022C0CD101336B8382F336
:10C3C4001188BFF36F8F0023224631462846FFF7BA
:10C3D4009EFFEEE7062C14D8DFE804F004131313D1
:10C3E400041A0400002333606B683BB9C5E9006696
:10C3F400ACB902212846FCF71BF8DAE71E606E6030
:10C40400F6E782F31188BFF36F8F6FF00404D0E76F
:10C4140082F31188BFF36F8F6FF08504C9E782F34D
:10C424001188BFF36F8FC4E7034658B1426802F026
:10C434000302012A03D0032A04D1026812B10020A6
:10C44400986070476FF0150070474268034602F029
:10C454000302032A4FF00002816014BF10460068F3
:10C464005A6070477047012801D1EFF30583FEF746
:10C474000DBC01460068FFF7F6BF08B5FCF7FAF8F3
:10C48400BDE80840FCF71AB9704770470021012045
:10C49400FFF7E9BF036E83F30B88704761B662B69A
:10C4A40080F31188BFF36F8F704772B6002383F354
:10C4B4001188BFF36F8FBFF34F8F30BF62B6BFF3E6
:10C4C4006F8F704772B6002383F31188BFF36F8FA9
:10C4D400BFF34F8F20BF80F31188BFF36F8F62B615
:10C4E400704740E800F313F4803FD8B208BF6FF000
:10C4F4001500704730B50C684B6885B00A894D89C2
:10C504000094013B24F01F04234402F01F0242EA7A
:10C51400451223F01F0369468DF808200393FCF7A6
:10C524000FFC05B030BD08B5FCF7CAFD002008BDFE
:10C53400034670B40C46DA88006819792243012452
:10C5440005698C402B6812F0010F866814BF2343E1
:10C55400A3432B60336870BC18470C220369C9B22B
:10C5640001FB0233186C00F00700704770B5C9B2C4
:10C574000369EFF31185202484F31288BFF36F8FCE
:10C584000C2606FB0134246C14F0C00408D0A2422B
:10C5940006D085F31188BFF36F8F4FF0FF3070BD65
:10C5A400012206FB01331A6485F31188BFF36F8FF0
:10C5B400436803EBC1035B6898470020EFE78022E0
:10C5C400FFF7D4BFF8B5069F0469C9B2EFF311862B
:10C5D400202585F31288BFF36F8F0C2505FB0144DA
:10C5E400256C05F0070CBCF1010F0CD1276486F310
:10C5F4001188BFF36F8FC4E90E23436853F83130B9
:10C6040098470020F8BD05F0C005AF4286F31188B5
:10C61400BFF36F8F0CBF6FF077004FF0FF30F1E77F
:10C6240013B580240094FFF7CDFF02B010BD10B401
:10C634001C240069CBB203FB0400002110BC10478A
:10C644000020FDF745BE002000F0FDB91046FEF7BE
:10C65400CBBD436800205B681B690B60704743686F
:10C6640002EA01005B6821EA020198600020D960B7
:10C674007047436800205B689960704743680020F6
:10C684005B68D960704743685A68536821EA0300BD
:10C694000B4090600020D360704710B50369586860
:10C6A400F8B1884219D19C680868A142586000D149
:10C6B4009860002008602AB15A680A609A68596034
:10C6C40002B99960002010E0814206D10868206018
:10C6D40098688142EDD19C60EBE70446006800282D
:10C6E400F2D1002AE8D16FF0150010BD30B54368CF
:10C6F4001360057A446804EBC504A34202D36FF0C7
:10C70400010030BD5C798C4201D00833F0E7002091
:10C71400F7E743681B68D3F88004C3F880047047C4
:10C7240042681368D3F8100150B10020D26912781E
:10C734000A70C3F81001D3F8102101221A6070475F
:10C744004FF0FF307047002A0FDD42681368D3F8BA
:10C75400100158B10020C3F81001D3F810010120D2
:10C76400D26912780A70186070470020704710B5BB
:10C77400436819680369EFF31182202080F312885B
:10C78400BFF36F8F00241868847301201B68D8736B
:10C794004FF48003C1F8043382F31188BFF36F8F21
:10C7A40010BD012103691A68917300221B68DA73B2
:10C7B4007047026903461168C87B40B15B681B6817
:10C7C400D3F8580118B100230B6113689889704796
:10C7D40043681B68D3F81001003818BF0120704764
:10C7E400102243681B68C3F804237047102243686F
:10C7F4001B68C3F8082370474FF4007243681B6832
:10C80400C3F8042370474FF4007243681B68C3F8ED
:10C814000823704738B5436804461D68D5F80433C7
:10C824005B0205D4D5F8040310F0100006D138BD1E
:10C83400FFF7BFFF0028F5D00120F8E72046FFF7F7
:10C84400C7FF003818BF0120F1E7012070470369D2
:10C85400186801601B685A60704702680346D2F882
:10C86400580140B95B68DB0706D4D2F820010038D0
:10C8740018BF012070470120704710B44368026953
:10C884001B68D3F80413C90517D5D3F82011A1B137
:10C89400EFF31181202484F31288BFF36F8FD3F850
:10C8A400204134B10024C3F82041D3F820410124AD
:10C8B400DC6081F31188BFF36F8F1468D3F85811CB
:10C8C4005CB161B1002121611468A47B3CB14FF4D7
:10C8D4008000C3F808031368997310BC7047D3F839
:10C8E400241121B10021C3F82411D3F82431126892
:10C8F4001368002BF1D0516810BC184710B50446DA
:10C90400002201210920FCF74DF90920FCF72EF93A
:10C914002046BDE81040FDF775B810B50446002266
:10C9240001210820FCF73EF90820FCF71FF92046F6
:10C93400BDE81040FDF766B82DE9F04106690546EB
:10C94400336801279C8910339442A8BF1446D3E866
:10C95400EF2F002A03D1C3E8E07F0028F7D10CBFF2
:10C964003B4600232BD133682246986800F046FAF0
:10C97400EFF31188202383F31288BFF36F8F696864
:10C984000846FFF76AFF326840B90446106188F32D
:10C994001188BFF36F8F2046BDE8F0810B68926861
:10C9A400C3F844250022C3F84845C3F82021D3F82E
:10C9B4002011C3F85821D3F858219F60E7E71C469B
:10C9C400E9E7002200F150039B009BB203F180438E
:10C9D40003F5A8331A601B68704700B589B006AB2D
:10C9E40002930823039301AB049304230791CDE935
:10C9F400053004AA184602A9FDF76CFB0228019B26
:10CA040009D003280AD060B9181E18BF012040427B
:10CA140009B05DF804FB6FF01500F9E76FF08500CD
:10CA2400F6E74FF0FF30F3E7002070477047004708
:10CA340000F0ABB840F00040C1F88000C2F88000BC
:10CA44007047FDF7D3BCFDF7C7BBF7B51646DDE964
:10CA54000847019001A81D46FDF7CEFC019BB6F1E5
:10CA6400000C18BF4FF0010C00EB83000B1E18BF25
:10CA74000123002D43EA4C0314BF4FF00C0C4FF07C
:10CA8400000C002C43EA0C0314BF4FF4E06C4FF08D
:10CA9400000C002F43EA0C0314BF4FF4403C4FF04A
:10CAA400000CD0F8002243EA0C0322EA030301B18C
:10CAB40009780EB13678760019430DB12D78AD00A2
:10CAC40031430CB12478240229430FB13F783F0449
:10CAD4000C433C43C0F8004203B0F0BD1FB50DF158
:10CAE4000F03019300238DF80F101A461946009383
:10CAF400FFF7ABFF05B05DF804FB70B501F1080367
:10CB040030F813301646DA0504460D4609D5C3F34A
:10CB1400432300EBC302314650F8333052682846B1
:10CB24009847A3682BB131462846E268BDE87040B7
:10CB3400184770BD38B50579044628460A46FDF7FE
:10CB4400B9FCC0B111462846FDF7A4FC98B11146C2
:10CB54002846FDF793FC012322688340C2F808337A
:10CB6400226803B202EB8303D3F8102522F00302F8
:10CB7400C3F8102538BD0021BDE838401046FFF742
:10CB8400ADBFFDF78FBDFFF7D5BF08B1FCF7C6BA3F
:10CB94007047704740B1C368587810F001001EBF59
:10CBA4001878B0FA80F040097047EFF3118320231E
:10CBB40083F31288BFF36F8FFEE708B5FFF7F5FF25
:10CBC40010B5D0E9003433B90020E268537843F05B
:10CBD4000103537010BD204698470028F4D0002864
:10CBE400B8BF4042FF28A8BFFF20E3681870ECE7F5
:10CBF40000F011B900F002B9704710B400F10C0450
:10CC0400C0E9034410BCFFF7EFBA202408B5EFF3E2
:10CC1400118384F31288BFF36F8FFFF746FCF6E7A6
:10CC240090F90E308B4201D0FEF7A6BC002070476D
:10CC3400EFF30580003818BF01207047FEF7F2BCFF
:10CC4400D0E9003213605A600023C0E90033704712
:10CC540008B5FFF7F5FF437B23F00203437300237A
:10CC6400836008BD38B504460D46FEF763FB637B5D
:10CC740043F002036373E5B1A5602B689D4209D1BB
:10CC84006B68C4E900531C606C6012E06A689A42E5
:10CC9400F6D01B68002BF3D094F90E2093F90E10F4
:10CCA4008A42F3D09142F1DD5A68C4E9003214603B
:10CCB4005C6038BD10B5EFF31184202383F3128830
:10CCC400BFF36F8FFEF74EFB84F31188BFF36F8FB2
:10CCD40010BD10B50446183000F077F8EFF3118159
:10CCE400202383F31288BFF36F8F627B12F010024C
:10CCF40004D081F31188BFF36F8F10BD2046BDE8C7
:10CD04001040FEF763BB38B50446EFF311852023CA
:10CD140083F31288BFF36F8F437B13F0280F0BD17B
:10CD240083680BB1FFF794FF637B51B903F0FB03F6
:10CD340020466373FEF716FB85F31188BFF36F8FEC
:10CD440038BD03F0EB03F3E701211838FFF7DBBF2D
:10CD540038B5EFF31185202383F31288BFF36F8F67
:10CD64000468A0420DD034B12046FFF771FF04F1EE
:10CD7400180000F02AF885F31188BFF36F8F20465E
:10CD840038BD0024F7E7EFF31181202282F31288E3
:10CD9400BFF36F8F027BD2070CD581F31188BFF3E9
:10CDA4006F8F002383F31188BFF36F8F042318461A
:10CDB40002DF7047437B1B0704D581F31188BFF35F
:10CDC4006F8F70470122FEF701BB10B5EFF311849A
:10CDD400202282F31288BFF36F8F03683BB1FEF702
:10CDE400DFFD002084F31188BFF36F8F10BD6FF057
:10CDF4001500F7E708B5FEF7F1FE08BD0A44431E27
:10CE0400914200D1704710B511F8014B914203F8DB
:10CE1400014FF9D110BD02440346934200D170473B
:10CE240003F8011BF9E70246014410B58A42134690
:10CE340003D01C780132002CF8D1181A10BDF0B5BB
:10CE4400C3F13707044603F01F031046FFB2082B53
:10CE5400E6B232D0102B3DD06508A40845EAC1756E
:10CE640044EA81748A082D1942EB5102290941EAE6
:10CE740002716D1842EB1212290A41EA02616D181F
:10CE840042EB1222290C41EA02416D1842EB124294
:10CE9400AD1842F10002EC0844EA4274D10804EBF4
:10CEA4008402A6EB4205EDB2092D0CD90134A5F19B
:10CEB4000A0541F10001EDB212E0E40806F00705AD
:10CEC40044EA4174C908303554EA010200F8015BB0
:10CED400BDD1F0BD240906F00F0544EA0174090927
:10CEE400092D84BFED19EDB2EDE70000014800689B
:08CEF40070470000F4C80020A3
:08CEFC0048B2FF7F01000000B5
:10CF040011910000000000005D9F0000000000007F
:10CF1400319200006CCF000011AF0000000000004F
:10CF2400E594000080CF00001FC90000A8CF0000D6
:10CF340001C9000094CF0000959400000000000097
:10CF44003D9D0000000000000D9F00000000000057
:10CF5400ED900000000000002DCA00000000000059
:08CF64003591000000000000FF
:10CF6C0010D5000028D2000038D20000B0C6002036
:10CF7C0030C900201BD5000054D200006CD2000038
:10CF8C00B2C6002084C900202FD5000090D200002A
:10CF9C0008D30000B4C6002094C5002039D5000089
:10CFAC00CCD2000008D30000B6C60020B8C50020C3
:10CFBC000000000091C400000000000091C40000BB
:10CFCC000000000091C400000000000091C40000AB
:10CFDC000000000091C400008DA3000033CA0000C3
:10CFEC000000000091C400000000000091C400008B
:10CFFC00A8CF00007FC8000094CF00007FC80000BD
:10D00C000000000091C400000000000091C400006A
:10D01C000000000091C400000000000091C400005A
:10D02C000000000091C400000000000091C400004A
:10D03C000000000091C400000000000091C400003A
:10D04C000000000091C400000000000091C400002A
:10D05C000000000091C4000000000000CD9D000005
:10D06C000000000091C400000000000091C400000A
:10D07C000000000091C400000000000091C40000FA
:10D08C000000000091C400000000000091C40000EA
:10D09C000000000091C400000000000091C40000DA
:10D0AC000000000091C400000000000091C40000CA
:10D0BC000000000091C400000000000091C40000BA
:10D0CC000000000091C400000000000091C40000AA
:10D0DC000000000091C400000000000091C400009A
:10D0EC000000000091C400000000000091C400008A
:10D0FC000000000091C400000000000091C400007A
:10D10C0045AC000033CA00000000000091C40000D0
:10D11C000000000091C400000000000091C4000059
:10D12C000000000091C400000000000091C4000049
:10D13C000000000091C4000039AC000033CA0000AC
:10D14C000000000091C400000000000091C4000029
:10D15C000000000091C400000000000091C4000019
:10D16C000000000091C400000000000091C4000009
:10D17C000000000091C400000000000091C40000F9
:10D18C000000000091C400000000000091C40000E9
:10D19C000000000091C400000000000091C40000D9
:10D1AC000000000091C400000000000091C40000C9
:08D1BC000000000091C4000016
:0CD1C400FFFFFFFFFFFFFFFFFFFFFFFF6B
:10D1D00080CF00000800000080CF000007000100A1
:10D1E0000338FDD87047000080C500200000000013
:10D1F0000600010002000000FCD100000000000059
:10D2000001D5000006000000E0FF0F0068C5002007
:10D2100009D5000021000000E0FF0320B9910000C3
:10D22000899100000000000009930000FD910000BA
:10D2300045C600004BC6000089920000C3C500002F
:10D2400025C60000000000005FC5000000000000CF
:10D2500000000000FFFFFFFF0025844000000000E9
:10D26000000000000010034001000000699500006C
:10D2700057C6000063C6000077C6000081C60000E4
:10D280008BC60000E59600009FC60000000000006D
:10D29000009000400100000000000000B0D200003B
:10D2A0000000D6010000000086CA002085CA0020C8
:10D2B00000900040BCD2000001000000C4D2000079
:10D2C000020000001800000017000001008000406C
:10D2D0000100000000000000ECD200000000D601B8
:10D2E00000000000A8CA0020A7CA0020008000405B
:10D2F000F8D200000100000000D30000020000008E
:10D30000090000000600000125C700005599000033
:10D3100017C700003DC900004BC7000073C70000DD
:10D32000A7C70000B7C70000E5C70000F1C70000AD
:10D33000B7C70000D5C70000FDC700000BC800003C
:10D3400019C800004FC8000053C8000004CF0000F7
:10D3500004CF000044CF00004CCF00006CCF000091
:10D360006CCF000055415254302064657669636586
:10D37000206E6F7420666F756E64210055415254A3
:10D38000302064657669636520646F6573206E6F15
:10D390007420737570706F727420696E7465727228
:10D3A0007570742D64726976656E204150490A006B
:10D3B000554152543120646576696365206E6F74FF
:10D3C00020666F756E6421005541525431206465AA
:10D3D0007669636520646F6573206E6F7420737562
:10D3E00070706F727420696E746572727570742DCE
:10D3F00064726976656E204150490A005541525465
:10D40000303A20577269746520736F6D657468696E
:10D410006E6720616E6420616E6420707265737344
:10D4200020656E74657220746F2073656E6420745D
:10D430006F2075617274313A0D0A005541525431B2
:10D440003A20577269746520736F6D657468696EF0
:10D450006720616E6420616E642070726573732052
:10D46000656E74657220746F2073656E6420746FCE
:10D470002075617274303A0D0A006D73736720660F
:10D48000726F6D2075617274313A20006D7373672D
:10D490002066726F6D2075617274303A20002A2AFE
:10D4A0002A20426F6F74696E67206E524620436F68
:10D4B0006E6E6563742053444B2076322E382E30C6
:10D4C0002D613233383662666338343031202A2A8F
:10D4D0002A0A002A2A2A205573696E67205A657025
:10D4E000687972204F532076332E372E39392D30FC
:10D4F0006263333339336662313132202A2A2A0A91
:10D5000000464C4153485F30005352414D5F30005C
:10D51000636C6F636B4035303030006770696F400B
:10D520003834323530300000010203040506077537
:10D530006172744039303030007561727440383037
:10D540003030006D61696E00286E756C6C29002AA0
:10D55000666C6F61742A0000519F0000000000009B
:10D56000FFFFFFFFFFFFFFFFFFFFFFFFFFFFFFFFCB
:08D57000FFFFFFFFFFFFFFFFBB
:10D578009DC20000000000002BC500000000000054
:10D5880000000000A4C5002000000000000000000A
:10D5980000000000000000000000000087CA002012
:10D5A8002000000000000000C8C5002000000000A6
:10D5B8000000000000000000000000000000000063
:10D5C800A9CA00202000000000000000FFFF0000A2
:10D5D8000000000000000000000000000000000043
:10D5E8000000000000000000000000000000000033
:10D5F8000000000000000000000000000000000023
:10D608000000000000000000000000000000000012
:10D618000000000000000000000000000000000002
:10D6280008000000FF0000000000000001000000EA
:10D6380000000000000000000000000000000000E2
:10D6480000000000000000000000000000000000D2
:10D6580000000000000000000000000000000000C2
:10D6680000000000000000000000000000000000B2
:10D6780000000000000000000000000000000000A2
:10D688000000000008000000FF000000000000008B
:10D698000100000000000000A8C60020A8C6002065
:08D6A80000000000000000007A
:10D6B0000000000010D80020000200000000000060
:04D6C0000000000066
:10D6C400CCC60020CCC600200000000000000000F2
:04D6D4000E00000044
:10D6D800E0C60020E0C60020200000000A0000008C
:10D6E80050DB002090DC002050DB002050DB0020C5
:10D6F800000000000000000008C7002008C7002044
:10D70800200000000A00000010DA002050DB002092
:10D7180010DA002010DA00200000000000000000ED
:04D7280015E015E013
:040000030000898DE3
:00000001FF
